{
  "contractName": "SVGToken",
  "abi": [
    {
      "constant": true,
      "inputs": [
        {
          "name": "interfaceId",
          "type": "bytes4"
        }
      ],
      "name": "supportsInterface",
      "outputs": [
        {
          "name": "",
          "type": "bool"
        }
      ],
      "payable": false,
      "stateMutability": "view",
      "type": "function"
    },
    {
      "constant": true,
      "inputs": [],
      "name": "name",
      "outputs": [
        {
          "name": "",
          "type": "string"
        }
      ],
      "payable": false,
      "stateMutability": "view",
      "type": "function"
    },
    {
      "constant": true,
      "inputs": [
        {
          "name": "tokenId",
          "type": "uint256"
        }
      ],
      "name": "getApproved",
      "outputs": [
        {
          "name": "",
          "type": "address"
        }
      ],
      "payable": false,
      "stateMutability": "view",
      "type": "function"
    },
    {
      "constant": false,
      "inputs": [
        {
          "name": "to",
          "type": "address"
        },
        {
          "name": "tokenId",
          "type": "uint256"
        }
      ],
      "name": "approve",
      "outputs": [],
      "payable": false,
      "stateMutability": "nonpayable",
      "type": "function"
    },
    {
      "constant": true,
      "inputs": [],
      "name": "totalSupply",
      "outputs": [
        {
          "name": "",
          "type": "uint256"
        }
      ],
      "payable": false,
      "stateMutability": "view",
      "type": "function"
    },
    {
      "constant": false,
      "inputs": [
        {
          "name": "from",
          "type": "address"
        },
        {
          "name": "to",
          "type": "address"
        },
        {
          "name": "tokenId",
          "type": "uint256"
        }
      ],
      "name": "transferFrom",
      "outputs": [],
      "payable": false,
      "stateMutability": "nonpayable",
      "type": "function"
    },
    {
      "constant": true,
      "inputs": [
        {
          "name": "owner",
          "type": "address"
        },
        {
          "name": "index",
          "type": "uint256"
        }
      ],
      "name": "tokenOfOwnerByIndex",
      "outputs": [
        {
          "name": "",
          "type": "uint256"
        }
      ],
      "payable": false,
      "stateMutability": "view",
      "type": "function"
    },
    {
      "constant": false,
      "inputs": [
        {
          "name": "from",
          "type": "address"
        },
        {
          "name": "to",
          "type": "address"
        },
        {
          "name": "tokenId",
          "type": "uint256"
        }
      ],
      "name": "safeTransferFrom",
      "outputs": [],
      "payable": false,
      "stateMutability": "nonpayable",
      "type": "function"
    },
    {
      "constant": true,
      "inputs": [
        {
          "name": "index",
          "type": "uint256"
        }
      ],
      "name": "tokenByIndex",
      "outputs": [
        {
          "name": "",
          "type": "uint256"
        }
      ],
      "payable": false,
      "stateMutability": "view",
      "type": "function"
    },
    {
      "constant": true,
      "inputs": [
        {
          "name": "tokenId",
          "type": "uint256"
        }
      ],
      "name": "ownerOf",
      "outputs": [
        {
          "name": "",
          "type": "address"
        }
      ],
      "payable": false,
      "stateMutability": "view",
      "type": "function"
    },
    {
      "constant": true,
      "inputs": [
        {
          "name": "owner",
          "type": "address"
        }
      ],
      "name": "balanceOf",
      "outputs": [
        {
          "name": "",
          "type": "uint256"
        }
      ],
      "payable": false,
      "stateMutability": "view",
      "type": "function"
    },
    {
      "constant": false,
      "inputs": [],
      "name": "renounceOwnership",
      "outputs": [],
      "payable": false,
      "stateMutability": "nonpayable",
      "type": "function"
    },
    {
      "constant": true,
      "inputs": [
        {
          "name": "",
          "type": "uint256"
        }
      ],
      "name": "images",
      "outputs": [
        {
          "name": "",
          "type": "string"
        }
      ],
      "payable": false,
      "stateMutability": "view",
      "type": "function"
    },
    {
      "constant": true,
      "inputs": [],
      "name": "owner",
      "outputs": [
        {
          "name": "",
          "type": "address"
        }
      ],
      "payable": false,
      "stateMutability": "view",
      "type": "function"
    },
    {
      "constant": true,
      "inputs": [],
      "name": "isOwner",
      "outputs": [
        {
          "name": "",
          "type": "bool"
        }
      ],
      "payable": false,
      "stateMutability": "view",
      "type": "function"
    },
    {
      "constant": true,
      "inputs": [],
      "name": "symbol",
      "outputs": [
        {
          "name": "",
          "type": "string"
        }
      ],
      "payable": false,
      "stateMutability": "view",
      "type": "function"
    },
    {
      "constant": false,
      "inputs": [
        {
          "name": "to",
          "type": "address"
        },
        {
          "name": "approved",
          "type": "bool"
        }
      ],
      "name": "setApprovalForAll",
      "outputs": [],
      "payable": false,
      "stateMutability": "nonpayable",
      "type": "function"
    },
    {
      "constant": false,
      "inputs": [
        {
          "name": "from",
          "type": "address"
        },
        {
          "name": "to",
          "type": "address"
        },
        {
          "name": "tokenId",
          "type": "uint256"
        },
        {
          "name": "_data",
          "type": "bytes"
        }
      ],
      "name": "safeTransferFrom",
      "outputs": [],
      "payable": false,
      "stateMutability": "nonpayable",
      "type": "function"
    },
    {
      "constant": true,
      "inputs": [
        {
          "name": "tokenId",
          "type": "uint256"
        }
      ],
      "name": "tokenURI",
      "outputs": [
        {
          "name": "",
          "type": "string"
        }
      ],
      "payable": false,
      "stateMutability": "view",
      "type": "function"
    },
    {
      "constant": true,
      "inputs": [
        {
          "name": "owner",
          "type": "address"
        },
        {
          "name": "operator",
          "type": "address"
        }
      ],
      "name": "isApprovedForAll",
      "outputs": [
        {
          "name": "",
          "type": "bool"
        }
      ],
      "payable": false,
      "stateMutability": "view",
      "type": "function"
    },
    {
      "constant": false,
      "inputs": [
        {
          "name": "newOwner",
          "type": "address"
        }
      ],
      "name": "transferOwnership",
      "outputs": [],
      "payable": false,
      "stateMutability": "nonpayable",
      "type": "function"
    },
    {
      "inputs": [
        {
          "name": "_name",
          "type": "string"
        },
        {
          "name": "_symbol",
          "type": "string"
        }
      ],
      "payable": false,
      "stateMutability": "nonpayable",
      "type": "constructor"
    },
    {
      "anonymous": false,
      "inputs": [
        {
          "indexed": true,
          "name": "previousOwner",
          "type": "address"
        },
        {
          "indexed": true,
          "name": "newOwner",
          "type": "address"
        }
      ],
      "name": "OwnershipTransferred",
      "type": "event"
    },
    {
      "anonymous": false,
      "inputs": [
        {
          "indexed": true,
          "name": "from",
          "type": "address"
        },
        {
          "indexed": true,
          "name": "to",
          "type": "address"
        },
        {
          "indexed": true,
          "name": "tokenId",
          "type": "uint256"
        }
      ],
      "name": "Transfer",
      "type": "event"
    },
    {
      "anonymous": false,
      "inputs": [
        {
          "indexed": true,
          "name": "owner",
          "type": "address"
        },
        {
          "indexed": true,
          "name": "approved",
          "type": "address"
        },
        {
          "indexed": true,
          "name": "tokenId",
          "type": "uint256"
        }
      ],
      "name": "Approval",
      "type": "event"
    },
    {
      "anonymous": false,
      "inputs": [
        {
          "indexed": true,
          "name": "owner",
          "type": "address"
        },
        {
          "indexed": true,
          "name": "operator",
          "type": "address"
        },
        {
          "indexed": false,
          "name": "approved",
          "type": "bool"
        }
      ],
      "name": "ApprovalForAll",
      "type": "event"
    },
    {
      "constant": true,
      "inputs": [
        {
          "name": "_svgId",
          "type": "uint256"
        }
      ],
      "name": "getSVG",
      "outputs": [
        {
          "name": "",
          "type": "string"
        }
      ],
      "payable": false,
      "stateMutability": "view",
      "type": "function"
    },
    {
      "constant": true,
      "inputs": [],
      "name": "getNumImages",
      "outputs": [
        {
          "name": "",
          "type": "uint256"
        }
      ],
      "payable": false,
      "stateMutability": "view",
      "type": "function"
    },
    {
      "constant": false,
      "inputs": [
        {
          "name": "_svgUri",
          "type": "string"
        }
      ],
      "name": "mint",
      "outputs": [],
      "payable": true,
      "stateMutability": "payable",
      "type": "function"
    }
  ],
  "bytecode": "0x60806040523480156200001157600080fd5b506040516200181e3803806200181e833981018060405260408110156200003757600080fd5b8101908080516401000000008111156200005057600080fd5b820160208101848111156200006457600080fd5b81516401000000008111828201871017156200007f57600080fd5b505092919060200180516401000000008111156200009c57600080fd5b82016020810184811115620000b057600080fd5b8151640100000000811182820187101715620000cb57600080fd5b50909350849250839150829050816200010d7f01ffc9a7000000000000000000000000000000000000000000000000000000006401000000006200022d810204565b620001417f80ac58cd000000000000000000000000000000000000000000000000000000006401000000006200022d810204565b620001757f780e9d63000000000000000000000000000000000000000000000000000000006401000000006200022d810204565b81516200018a9060099060208501906200029a565b508051620001a090600a9060208401906200029a565b50620001d57f5b5e139f000000000000000000000000000000000000000000000000000000006401000000006200022d810204565b5050600c8054600160a060020a031916331790819055604051600160a060020a03919091169250600091507f8be0079c531659141344cd1fd0a4f28419497f9722a3daafe3b4186f6b6457e0908290a350506200033f565b7fffffffff0000000000000000000000000000000000000000000000000000000080821614156200025d57600080fd5b7fffffffff00000000000000000000000000000000000000000000000000000000166000908152602081905260409020805460ff19166001179055565b828054600181600116156101000203166002900490600052602060002090601f016020900481019282601f10620002dd57805160ff19168380011785556200030d565b828001600101855582156200030d579182015b828111156200030d578251825591602001919060010190620002f0565b506200031b9291506200031f565b5090565b6200033c91905b808211156200031b576000815560010162000326565b90565b6114cf806200034f6000396000f3fe60806040526004361061013d5763ffffffff7c010000000000000000000000000000000000000000000000000000000060003504166301ffc9a7811461014257806306fdde031461018a578063081812fc14610214578063095ea7b31461025a57806318160ddd1461029557806323b872dd146102bc5780632f745c59146102ff57806342842e0e146103385780634f6ccce71461037b5780636352211e146103a557806370a08231146103cf578063715018a61461040257806384856482146104175780638da5cb5b146104415780638f32d59b1461045657806395d89b411461046b578063a22cb46514610480578063b88d4fde146104bb578063be985ac91461058e578063c87b56dd146105b8578063ca73f8ad146105e2578063d85d3d27146105f7578063e985e9c51461069d578063f2fde38b146106d8575b600080fd5b34801561014e57600080fd5b506101766004803603602081101561016557600080fd5b5035600160e060020a03191661070b565b604080519115158252519081900360200190f35b34801561019657600080fd5b5061019f61072a565b6040805160208082528351818301528351919283929083019185019080838360005b838110156101d95781810151838201526020016101c1565b50505050905090810190601f1680156102065780820380516001836020036101000a031916815260200191505b509250505060405180910390f35b34801561022057600080fd5b5061023e6004803603602081101561023757600080fd5b50356107c1565b60408051600160a060020a039092168252519081900360200190f35b34801561026657600080fd5b506102936004803603604081101561027d57600080fd5b50600160a060020a0381351690602001356107f3565b005b3480156102a157600080fd5b506102aa61089c565b60408051918252519081900360200190f35b3480156102c857600080fd5b50610293600480360360608110156102df57600080fd5b50600160a060020a038135811691602081013590911690604001356108a2565b34801561030b57600080fd5b506102aa6004803603604081101561032257600080fd5b50600160a060020a0381351690602001356108c7565b34801561034457600080fd5b506102936004803603606081101561035b57600080fd5b50600160a060020a03813581169160208101359091169060400135610914565b34801561038757600080fd5b506102aa6004803603602081101561039e57600080fd5b5035610930565b3480156103b157600080fd5b5061023e600480360360208110156103c857600080fd5b5035610965565b3480156103db57600080fd5b506102aa600480360360208110156103f257600080fd5b5035600160a060020a031661098f565b34801561040e57600080fd5b506102936109c2565b34801561042357600080fd5b5061019f6004803603602081101561043a57600080fd5b5035610a1f565b34801561044d57600080fd5b5061023e610ac6565b34801561046257600080fd5b50610176610ad5565b34801561047757600080fd5b5061019f610ae6565b34801561048c57600080fd5b50610293600480360360408110156104a357600080fd5b50600160a060020a0381351690602001351515610b47565b3480156104c757600080fd5b50610293600480360360808110156104de57600080fd5b600160a060020a0382358116926020810135909116916040820135919081019060808101606082013564010000000081111561051957600080fd5b82018360208201111561052b57600080fd5b8035906020019184600183028401116401000000008311171561054d57600080fd5b91908080601f016020809104026020016040519081016040528093929190818152602001838380828437600092019190915250929550610bcb945050505050565b34801561059a57600080fd5b5061019f600480360360208110156105b157600080fd5b5035610bf3565b3480156105c457600080fd5b5061019f600480360360208110156105db57600080fd5b5035610c9e565b3480156105ee57600080fd5b506102aa610d1c565b6102936004803603602081101561060d57600080fd5b81019060208101813564010000000081111561062857600080fd5b82018360208201111561063a57600080fd5b8035906020019184600183028401116401000000008311171561065c57600080fd5b91908080601f016020809104026020016040519081016040528093929190818152602001838380828437600092019190915250929550610d22945050505050565b3480156106a957600080fd5b50610176600480360360408110156106c057600080fd5b50600160a060020a0381358116916020013516610d8d565b3480156106e457600080fd5b50610293600480360360208110156106fb57600080fd5b5035600160a060020a0316610dbb565b600160e060020a03191660009081526020819052604090205460ff1690565b60098054604080516020601f60026000196101006001881615020190951694909404938401819004810282018101909252828152606093909290918301828280156107b65780601f1061078b576101008083540402835291602001916107b6565b820191906000526020600020905b81548152906001019060200180831161079957829003601f168201915b505050505090505b90565b60006107cc82610dda565b15156107d757600080fd5b50600090815260026020526040902054600160a060020a031690565b60006107fe82610965565b9050600160a060020a03838116908216141561081957600080fd5b33600160a060020a038216148061083557506108358133610d8d565b151561084057600080fd5b6000828152600260205260408082208054600160a060020a031916600160a060020a0387811691821790925591518593918516917f8c5be1e5ebec7d5bd14f71427d1e84f3dd0314c0f7b2291e5b200ac8c7c3b92591a4505050565b60075490565b6108ac3382610df7565b15156108b757600080fd5b6108c2838383610e56565b505050565b60006108d28361098f565b82106108dd57600080fd5b600160a060020a038316600090815260056020526040902080548390811061090157fe5b9060005260206000200154905092915050565b6108c28383836020604051908101604052806000815250610bcb565b600061093a61089c565b821061094557600080fd5b600780548390811061095357fe5b90600052602060002001549050919050565b600081815260016020526040812054600160a060020a031680151561098957600080fd5b92915050565b6000600160a060020a03821615156109a657600080fd5b50600160a060020a031660009081526003602052604090205490565b6109ca610ad5565b15156109d557600080fd5b600c54604051600091600160a060020a0316907f8be0079c531659141344cd1fd0a4f28419497f9722a3daafe3b4186f6b6457e0908390a3600c8054600160a060020a0319169055565b600d805482908110610a2d57fe5b600091825260209182902001805460408051601f6002600019610100600187161502019094169390930492830185900485028101850190915281815293509091830182828015610abe5780601f10610a9357610100808354040283529160200191610abe565b820191906000526020600020905b815481529060010190602001808311610aa157829003601f168201915b505050505081565b600c54600160a060020a031690565b600c54600160a060020a0316331490565b600a8054604080516020601f60026000196101006001881615020190951694909404938401819004810282018101909252828152606093909290918301828280156107b65780601f1061078b576101008083540402835291602001916107b6565b600160a060020a038216331415610b5d57600080fd5b336000818152600460209081526040808320600160a060020a03871680855290835292819020805460ff1916861515908117909155815190815290519293927f17307eab39ab6107e8899845ad3d59bd9653f200f220920489ca2b5937696c31929181900390910190a35050565b610bd68484846108a2565b610be284848484610e75565b1515610bed57600080fd5b50505050565b6060600d82815481101515610c0457fe5b600091825260209182902001805460408051601f6002600019610100600187161502019094169390930492830185900485028101850190915281815292830182828015610c925780601f10610c6757610100808354040283529160200191610c92565b820191906000526020600020905b815481529060010190602001808311610c7557829003601f168201915b50505050509050919050565b6060610ca982610dda565b1515610cb457600080fd5b6000828152600b602090815260409182902080548351601f600260001961010060018616150201909316929092049182018490048402810184019094528084529091830182828015610c925780601f10610c6757610100808354040283529160200191610c92565b600d5490565b610d2a610ad5565b1515610d3557600080fd5b600d805460018101808355600092835283519091610d7c917fd7b6990105719101dabeb77144f2a3385c8033acd3af97e9423a695e81ad1eb59091019060208601906113eb565b509050610d893382610fb0565b5050565b600160a060020a03918216600090815260046020908152604080832093909416825291909152205460ff1690565b610dc3610ad5565b1515610dce57600080fd5b610dd781610fcd565b50565b600090815260016020526040902054600160a060020a0316151590565b600080610e0383610965565b905080600160a060020a031684600160a060020a03161480610e3e575083600160a060020a0316610e33846107c1565b600160a060020a0316145b80610e4e5750610e4e8185610d8d565b949350505050565b610e6183838361103e565b610e6b838261114d565b6108c28282611244565b6000610e8984600160a060020a0316611282565b1515610e9757506001610e4e565b60405160e160020a630a85bd010281523360048201818152600160a060020a03888116602485015260448401879052608060648501908152865160848601528651600095928a169463150b7a029490938c938b938b939260a4019060208501908083838e5b83811015610f14578181015183820152602001610efc565b50505050905090810190601f168015610f415780820380516001836020036101000a031916815260200191505b5095505050505050602060405180830381600087803b158015610f6357600080fd5b505af1158015610f77573d6000803e3d6000fd5b505050506040513d6020811015610f8d57600080fd5b5051600160e060020a03191660e160020a630a85bd010214915050949350505050565b610fba828261128a565b610fc48282611244565b610d898161133e565b600160a060020a0381161515610fe257600080fd5b600c54604051600160a060020a038084169216907f8be0079c531659141344cd1fd0a4f28419497f9722a3daafe3b4186f6b6457e090600090a3600c8054600160a060020a031916600160a060020a0392909216919091179055565b82600160a060020a031661105182610965565b600160a060020a03161461106457600080fd5b600160a060020a038216151561107957600080fd5b61108281611382565b600160a060020a0383166000908152600360205260409020546110ac90600163ffffffff6113bd16565b600160a060020a0380851660009081526003602052604080822093909355908416815220546110e290600163ffffffff6113d216565b600160a060020a03808416600081815260036020908152604080832095909555858252600190528381208054600160a060020a031916831790559251849391928716917fddf252ad1be2c89b69c2b068fc378daa952ba7f163c4a11628f55a4df523b3ef91a4505050565b600160a060020a03821660009081526005602052604081205461117790600163ffffffff6113bd16565b60008381526006602052604090205490915080821461121457600160a060020a03841660009081526005602052604081208054849081106111b457fe5b90600052602060002001549050806005600087600160a060020a0316600160a060020a03168152602001908152602001600020838154811015156111f457fe5b600091825260208083209091019290925591825260069052604090208190555b600160a060020a038416600090815260056020526040902080549061123d906000198301611469565b5050505050565b600160a060020a0390911660009081526005602081815260408084208054868652600684529185208290559282526001810183559183529091200155565b6000903b1190565b600160a060020a038216151561129f57600080fd5b6112a881610dda565b156112b257600080fd5b60008181526001602081815260408084208054600160a060020a031916600160a060020a03881690811790915584526003909152909120546112f3916113d2565b600160a060020a0383166000818152600360205260408082209390935591518392907fddf252ad1be2c89b69c2b068fc378daa952ba7f163c4a11628f55a4df523b3ef908290a45050565b600780546000838152600860205260408120829055600182018355919091527fa66cc928b5edb82af9bd49922954155ab7b0942694bea4ce44661d9a8736c6880155565b600081815260026020526040902054600160a060020a031615610dd75760009081526002602052604090208054600160a060020a0319169055565b6000828211156113cc57600080fd5b50900390565b6000828201838110156113e457600080fd5b9392505050565b828054600181600116156101000203166002900490600052602060002090601f016020900481019282601f1061142c57805160ff1916838001178555611459565b82800160010185558215611459579182015b8281111561145957825182559160200191906001019061143e565b50611465929150611489565b5090565b8154818355818111156108c2576000838152602090206108c29181019083015b6107be91905b80821115611465576000815560010161148f56fea165627a7a72305820831f7885fc33c71a836c12ad38be890d3b57b8d596f3794aed1071d29700cde80029",
  "source": "pragma solidity ^0.5.0;\n\n// contract SVGToken {\n//     string public myString = \"Hello World\";\n\n//     function set(string memory s) public {\n//         myString = s;\n//     }\n// }\n\nimport \"../node_modules/openzeppelin-solidity/contracts/token/ERC721/ERC721Full.sol\";\nimport \"../node_modules/openzeppelin-solidity/contracts/ownership/Ownable.sol\";\n\ncontract SVGToken is ERC721Full, Ownable {\n\n    string[] public images;\n\n    constructor(string memory _name, string memory _symbol) public ERC721Full(_name, _symbol) {\n    }\n\n    function getSVG(uint _svgId) public view returns (string memory) {\n        return images[_svgId];\n\n    }\n\n    function getNumImages() public view returns (uint) {\n        return images.length;\n    }\n\n    function mint(string memory _svgUri) public payable onlyOwner {\n        uint _svgId = images.push(_svgUri);\n        _mint(msg.sender, _svgId);\n    }\n}\n",
  "sourcePath": "/home/edwin/dev/make_school/bew/dApps_project/contracts/SVGToken.sol",
  "compiler": {
    "name": "solc",
    "version": "0.5.0+commit.1d4f565a.Emscripten.clang"
  },
  "schemaVersion": "3.0.11",
  "updatedAt": "2019-06-27T02:34:25.995Z",
  "devdoc": {
    "methods": {
      "approve(address,uint256)": {
        "details": "Approves another address to transfer the given token ID The zero address indicates there is no approved address. There can only be one approved address per token at a given time. Can only be called by the token owner or an approved operator.",
        "params": {
          "to": "address to be approved for the given token ID",
          "tokenId": "uint256 ID of the token to be approved"
        }
      },
      "balanceOf(address)": {
        "details": "Gets the balance of the specified address",
        "params": {
          "owner": "address to query the balance of"
        },
        "return": "uint256 representing the amount owned by the passed address"
      },
      "getApproved(uint256)": {
        "details": "Gets the approved address for a token ID, or zero if no address set Reverts if the token ID does not exist.",
        "params": {
          "tokenId": "uint256 ID of the token to query the approval of"
        },
        "return": "address currently approved for the given token ID"
      },
      "isApprovedForAll(address,address)": {
        "details": "Tells whether an operator is approved by a given owner",
        "params": {
          "operator": "operator address which you want to query the approval of",
          "owner": "owner address which you want to query the approval of"
        },
        "return": "bool whether the given operator is approved by the given owner"
      },
      "isOwner()": {
        "return": "true if `msg.sender` is the owner of the contract."
      },
      "name()": {
        "details": "Gets the token name",
        "return": "string representing the token name"
      },
      "owner()": {
        "return": "the address of the owner."
      },
      "ownerOf(uint256)": {
        "details": "Gets the owner of the specified token ID",
        "params": {
          "tokenId": "uint256 ID of the token to query the owner of"
        },
        "return": "owner address currently marked as the owner of the given token ID"
      },
      "renounceOwnership()": {
        "details": "Allows the current owner to relinquish control of the contract."
      },
      "safeTransferFrom(address,address,uint256)": {
        "details": "Safely transfers the ownership of a given token ID to another address If the target address is a contract, it must implement `onERC721Received`, which is called upon a safe transfer, and return the magic value `bytes4(keccak256(\"onERC721Received(address,address,uint256,bytes)\"))`; otherwise, the transfer is reverted.     * Requires the msg sender to be the owner, approved, or operator",
        "params": {
          "from": "current owner of the token",
          "to": "address to receive the ownership of the given token ID",
          "tokenId": "uint256 ID of the token to be transferred"
        }
      },
      "safeTransferFrom(address,address,uint256,bytes)": {
        "details": "Safely transfers the ownership of a given token ID to another address If the target address is a contract, it must implement `onERC721Received`, which is called upon a safe transfer, and return the magic value `bytes4(keccak256(\"onERC721Received(address,address,uint256,bytes)\"))`; otherwise, the transfer is reverted. Requires the msg sender to be the owner, approved, or operator",
        "params": {
          "_data": "bytes data to send along with a safe transfer check",
          "from": "current owner of the token",
          "to": "address to receive the ownership of the given token ID",
          "tokenId": "uint256 ID of the token to be transferred"
        }
      },
      "setApprovalForAll(address,bool)": {
        "details": "Sets or unsets the approval of a given operator An operator is allowed to transfer all tokens of the sender on their behalf",
        "params": {
          "approved": "representing the status of the approval to be set",
          "to": "operator address to set the approval"
        }
      },
      "supportsInterface(bytes4)": {
        "details": "implement supportsInterface(bytes4) using a lookup table"
      },
      "symbol()": {
        "details": "Gets the token symbol",
        "return": "string representing the token symbol"
      },
      "tokenByIndex(uint256)": {
        "details": "Gets the token ID at a given index of all the tokens in this contract Reverts if the index is greater or equal to the total number of tokens",
        "params": {
          "index": "uint256 representing the index to be accessed of the tokens list"
        },
        "return": "uint256 token ID at the given index of the tokens list"
      },
      "tokenOfOwnerByIndex(address,uint256)": {
        "details": "Gets the token ID at a given index of the tokens list of the requested owner",
        "params": {
          "index": "uint256 representing the index to be accessed of the requested tokens list",
          "owner": "address owning the tokens list to be accessed"
        },
        "return": "uint256 token ID at the given index of the tokens list owned by the requested address"
      },
      "tokenURI(uint256)": {
        "details": "Returns an URI for a given token ID Throws if the token ID does not exist. May return an empty string.",
        "params": {
          "tokenId": "uint256 ID of the token to query"
        }
      },
      "totalSupply()": {
        "details": "Gets the total amount of tokens stored by the contract",
        "return": "uint256 representing the total amount of tokens"
      },
      "transferFrom(address,address,uint256)": {
        "details": "Transfers the ownership of a given token ID to another address Usage of this method is discouraged, use `safeTransferFrom` whenever possible Requires the msg sender to be the owner, approved, or operator",
        "params": {
          "from": "current owner of the token",
          "to": "address to receive the ownership of the given token ID",
          "tokenId": "uint256 ID of the token to be transferred"
        }
      },
      "transferOwnership(address)": {
        "details": "Allows the current owner to transfer control of the contract to a newOwner.",
        "params": {
          "newOwner": "The address to transfer ownership to."
        }
      }
    }
  },
  "userdoc": {
    "methods": {
      "renounceOwnership()": {
        "notice": "Renouncing to ownership will leave the contract without an owner. It will not be possible to call the functions with the `onlyOwner` modifier anymore."
      }
    }
  }
}